:1000000021C2000050C200004EC200004CC20000DD
:100010004AC2000048C2000046C2000044C20000BC
:1000200042C200000C94A90A0C94A90A0C94A90AD3
:100030003AC2000038C2000036C2000034C20000DC
:1000400032C2000030C200002EC200002CC20000EC
:100050002AC2000028C2000026C200000C94270B10
:1000600022C200000C94560E0C948C0E1CC2000090
:100070001AC2000018C2000016C2000014C200001C
:1000800012C2000010C200000EC200000CC200002C
:100090000AC2000008C2000006C2000004C200003C
:1000A00002C2000000C20000FEC10000FCC100004E
:1000B000FAC10000F8C10000F6C10000F4C1000060
:1000C000F2C10000F0C10000EEC100000C94010F6D
:1000D0000C94370FE8C10000E6C10000E4C1000045
:1000E000E2C10000CF06E406F9060E072307380731
:1000F0004D07EA07EF07F407F907FE0703080808AA
:100100003F0C420C310C350C3B0C790C460C4A0C64
:10011000500C540C580C5E0C620C660C790C6C0C78
:10012000700C740C41542B43504D533D22534D22BF
:100130002C22534D222C22534D220041542B434E4E
:100140004D493D322C30005249433A204E4F205306
:100150005452494E472052435644004154543A2089
:100160000041542B434950534855540041542B43AC
:100170005042533D22534D220041542B434D47469C
:100180003D310041542B434D45453D300041542BFA
:10019000434C49503D3100415445300041542646BE
:1001A000004552524F523A2053494D393030206465
:1001B0006F65736E277420616E737765722E2043AE
:1001C0006865636B20706F77657220616E64207361
:1001D000657269616C2070696E7320696E20475387
:1001E0004D2E6370700041542B4950523D393630CA
:1001F000300D003131353230300041542B495052EE
:100200003D393630300D0035373630300041542B13
:100210004950523D393630300D00333834303000DB
:1002200041542B4950523D393630300D003139326E
:1002300030300041542B4950523D393630300D009A
:10024000393630300041542B4950523D3936303028
:100250000D00343830300041542B4950523D39366E
:1002600030300D00323430300041542B4950523D73
:10027000393630300D003132303000547279696EC9
:100280006720746F20666F726365207468652062F2
:100290006175642D7261746520746F203936303059
:1002A0000A0044423A4E4F2042520044423A4F4BD9
:1002B0002042520044423A464F554E442050524547
:1002C000562042520044423A4155544F2042415533
:1002D0004420524154450044423A434F5252454310
:1002E000542042520044423A454C53450044423A5D
:1002F0004E4F2052455350000A446F6E652E2E001B
:100300002E005374617274696E6720726561642E89
:100310002E0A57616974696E6720666F72204461A6
:1003200074612E2E0000000A0B02090C0D0E080746
:1003300003040100000000000000000000000000B5
:1003400000000000000000000000000000000000AD
:10035000001211100000000000000000000000006A
:10036000000000000000000000000001021020203A
:1003700008081020401020408002010201080402F9
:10038000010102040810204080804020100804026F
:1003900001800402018040201008040201080402C8
:1003A00001010204081020408001020408102040CE
:1003B0008005050505070508080808020202020A6B
:1003C0000A080804040404010101010101010103F8
:1003D00003030303030303040707070C0C0C0C0CB3
:1003E0000C0C0C0202020206060606060606060BA6
:1003F0000B0B0B0B0B0B0B00002200250028002B16
:10040000002E003100340002010000050108010B3C
:100410000100002100240027002A002D00300033B5
:100420000001010000040107010A01007902EF0246
:10043000F402F9026F03AB09BC09ED09A40ABE0E70
:10044000690FF50911241FBECFEFD1E2DEBFCDBF8A
:1004500000E00CBF12E0A0E0B2E0E0E5F1E200E075
:100460000BBF02C007900D92A03DB107D9F725E060
:10047000A0EDB2E001C01D92A537B207E1F714E08C
:10048000C2E4D4E000E006C022970109FE010BBFE0
:100490000E947010CC32D10780E00807A9F70E94B3
:1004A000AD0F0C949710ACCD26E040E855E260E02B
:1004B00070E08BE394E00E94F60D66E072E08BE35F
:1004C00094E00E94371040E855E260E070E08AE076
:1004D00093E052D3892B19F06AE172E002C068E21E
:1004E00072E08BE394E00C94371088E093E00C9476
:1004F0007F0A63E070E08AEF92E043C7CF93DF9317
:100500001092D1021092D0028BE394E00E94E80C8A
:10051000181619060CF05EC08BE394E00E94E80CFC
:10052000C091D002D091D10218161906BCF48BE309
:1005300094E00E94010DCE52DD4F88836AE070E0A6
:1005400080E090E00E94A00B8091D0029091D102B7
:1005500001969093D1028093D002DECFCE52DD4F30
:10056000188265E372E082ED92E00E947410892B9C
:1005700081F46AE372E08BE394E00E9437108AE131
:100580008093D2021092D30262ED72E088E093E091
:100590000CD76CE372E082ED92E00E947410892B1C
:1005A00061F461E472E08BE394E00E94371060E54F
:1005B00072E088E093E005D70BC062ED72E08BE358
:1005C00094E00E94371062ED72E088E093E0EDD68F
:1005D0001092D202DF91CF91089590DF86CF63E031
:1005E00070E08CEF92E0CDC663E070E08EEF92E0B9
:1005F000C8C663E070E080E093E0C3C60F931F932A
:10060000CF93DF938C01EB01FC01EF52FF4F808110
:10061000882301F167E572E08BE394E00E941C10EF
:10062000BE018BE394E00E9437106DE572E08BE32E
:1006300094E00E941C100E5F1F4FB8018BE394E002
:100640000E943710BE01C8010E947D1021E0892B55
:1006500099F411C06BE571E08BE394E00E94F70F11
:10066000BE018BE394E00E94371067E471E08BE3F6
:1006700094E00E94F70F20E0822FDF91CF911F912D
:100680000F910895FF920F931F93CF93DF93F62E50
:1006900021E02617F0F08C0103531F4FF80120834F
:1006A000EC01C452DF4F63E672E0CE0175D56F2DC9
:1006B00070E04AE050E0CE0147D667E672E0CE0136
:1006C0006BD564EF71E080E090E00E94A00BF80130
:1006D0001082DF91CF911F910F91FF90089563E0F9
:1006E00070E082E093E04DC6CF93DF9327E832E0DD
:1006F000FC0131832083EC01C452DF4FCE011AD5B7
:1007000040E855E260E070E0CE01DF91CF91FEC499
:100710006F927F928F929F92AF92BF92CF92DF9211
:10072000EF92FF920F931F93CF93DF93EC018C0115
:100730000E521F4FF8018081811130C0CE018452CA
:100740009F4F14D69E0129523F4F7901892BE9F41E
:10075000C8D7F701C080D180E280F3806C197D0991
:100760008E099F093497C080D180E12CF12C6C1543
:100770007D058E059F0590F032978081FE01E80F80
:10078000F11D128284E0782E0AC0ABD7F701608396
:1007900071838283938381E0F8018083712CF80157
:1007A0008081813009F059C07E01FCEDEF0EF11C13
:1007B000C701DCD5682E882341F093D7FE01E952AA
:1007C000FF4F608371838283938300E010E06E01AA
:1007D00021EDC20ED11C5E013FECA30EB11C6016D0
:1007E000F9F0F6018081883CB0F4F50180809180B9
:1007F000C701B9D5F4018083F5018081918101960B
:1008000091838083F60180818F5F8083FE01E80FF2
:10081000F11D128202C0C701A6D50F5F1F4FDFCFA7
:1008200060D7FE01E952FF4F00811181228133819F
:10083000601B710B820B930B32970081118120E0BA
:1008400030E0601771078207930738F03497808192
:10085000C80FD11D1A8277247394872DDF91CF9111
:100860001F910F91FF90EF90DF90CF90BF90AF90CE
:100870009F908F907F906F900895CF93DF93EC01BE
:10088000FC01EE52FF4F10823196718360833296E5
:100890005183408326D7FE01E952FF4F6083718365
:1008A000828393831A823897CE0102969183808344
:1008B0003296108286529F4FDF91CF915AC5CF93C7
:1008C000DF93EC01DADFCE0123DF8823E1F3DF9150
:1008D000CF9108954F925F926F927F928F929F92E5
:1008E000AF92BF92CF92DF92EF92FF920F931F933E
:1008F000CF93DF931F92CDB7DEB72C016B015A0166
:100900004901F12C2FEF3C018CED680E711CFE1497
:10091000D9F0FF2029F064EF71E080E090E010D77B
:10092000B601C30163D4A401B501C201C8DF81309F
:1009300039F4B801C20162DE811105C020E001C0B6
:100940002FEFF394E4CF21E048E853E168EE73E041
:10095000C2012983B4DF2981822F0F90DF91CF91CB
:100960001F910F91FF90EF90DF90CF90BF90AF90CD
:100970009F908F907F906F905F904F9008956F92AF
:100980007F928F929F92AF92BF92CF92DF92EF921F
:10099000FF920F931F93CF93DF93EC016B015A01EA
:1009A0004901F12C8FEF3E019CED690E711CFE1484
:1009B000D1F0FF2029F064EF71E080E090E0C0D634
:1009C000B601C30103D4A401B501CE0178DF8130A3
:1009D00031F4B801CE0112DE882311F003C08FEF8D
:1009E000F394E5CF81E0DF91CF911F910F91FF90BC
:1009F000EF90DF90CF90BF90AF909F908F907F90BF
:100A00006F900895CF92DF92EF920F931F93CF9341
:100A1000DF936C01EC01C353DF4F8881811120C04B
:100A200081E0888392E0E92E05E712E022E330E0DE
:100A300048EE53E06BE371E0C601A1DF2AE0E22E4D
:100A400009E612E028EE33E048EE53E064E271E09C
:100A5000C60195DF91E0813009F090E0188201C075
:100A60009FEF892FDF91CF911F910F91EF90DF9032
:100A7000CF900895CF92DF92EF920F931F93CF9371
:100A8000DF93EC016C018DECC80ED11C81E0F60106
:100A9000808335E0E32E05E712E022E330E044EF07
:100AA00051E06DE871E0CE016ADF22E330E044EF0F
:100AB00051E063E871E0CE0162DF22E330E044EF11
:100AC00051E069E771E0CE015ADFF6011082CE01F4
:100AD00099DF22E330E048EE53E06CE671E0CE01AE
:100AE0004EDF00E712E022E330E044EF51E061E640
:100AF00071E0CE0144DFDF91CF911F910F91EF9014
:100B0000DF90CF900895CF92DF92EF920F931F93D3
:100B1000CF93DF93EC01662351F0613029F5DF912B
:100B2000CF911F910F91EF90DF90CF90A3CF6C01E9
:100B30008DECC80ED11C81E0F601808345E0E42EE7
:100B400005E712E022E330E048EE53E06CE971E0A3
:100B5000CE0115DF22E330E044EF51E067E971E0B8
:100B6000CE010DDFF6011082DF91CF911F910F9121
:100B7000EF90DF90CF9008952F923F924F925F9227
:100B80006F927F928F929F92AF92BF92CF92DF929D
:100B9000EF92FF920F931F93CF93DF93CDB7DEB702
:100BA00027970FB6F894DEBF0FBECDBF6C012A01A8
:100BB0003B0161E08EE29ED661E08FE29BD646016A
:100BC0008DEC880E911C81E0F4018083C601845273
:100BD0009F4F9F838E83B301A20198D2160192E0AA
:100BE000290E311CF601E153FF4FFB83EA8331826A
:100BF0002082C60185539F4F9D838C8381E090E0C6
:100C0000EC81FD8191838083A3E0AA2EB12CF5E0D5
:100C1000EF2E05E712E024E630E044EF51E068E70C
:100C200072E0C60157DE8F3F39F065EE72E08BE36C
:100C300094E00E94271016C06DEE72E08BE394E002
:100C40000E94271061E08EE28ED660EB74E080E0B7
:100C500090E076D560E08EE286D660E177E280E0D3
:100C600090E06ED548EE53E068EE73E0C60127DEF3
:100C7000F1E0AF1AB10859F6E5E0EE2E05E712E013
:100C800024E630E044EF51E068E772E0C60122DE7E
:100C9000813051F467ED72E08BE394E00E942710FD
:100CA000FF24F394198203C0F12C81E0898375E05D
:100CB000E72E05E712E024E630E044EF51E068E774
:100CC00072E0C60107DE81113EC0F11044C165EC3F
:100CD00072E08BE394E00E942710A12CB12CF50167
:100CE0003197E730F10508F471C140EB54E060E062
:100CF00070E08E819F810AD264E670E080E090E02F
:100D00001FD565E0E62E05E712E024E630E044EF6B
:100D100051E068E772E0C601DDDD813009F47DC194
:100D200062EA72E08BE394E00E9427109FEFA91A19
:100D3000B90AE8E0AE16B10491F6F4011082EA8136
:100D4000FB8131822082F981FF2309F404C1F11073
:100D500002C16BE772E08BE394E00E942710A12CA4
:100D6000B12CF5013197E730F10520F4EE58FF4F33
:100D70000C946A1040EB54E060E070E08E819F813B
:100D8000C5D168EE73E080E090E0DAD466E772E007
:100D90008BE394E00E94271069E672E092C040E67F
:100DA00059E060E070E08E819F81B0D168EE73E021
:100DB00080E090E0C5D464E672E08BE394E00E94AA
:100DC000271067E572E07DC040EC52E160E070E022
:100DD0008E819F819BD168EE73E080E090E0B0D47B
:100DE00062E572E08BE394E00E94271065E472E014
:100DF00068C040E855E260E070E08E819F8186D156
:100E000068EE73E080E090E09BD460E472E08BE3F6
:100E100094E00E94271063E372E053C040E05BE47B
:100E200060E070E08E819F8171D168EE73E080E0B8
:100E300090E086D46DE272E08BE394E00E9427108C
:100E400060E272E03EC040E056E960E070E08E8112
:100E50009F815CD168EE73E080E090E071D46AE13C
:100E600072E08BE394E00E9427106DE072E029C0ED
:100E700040E051EE60E070E08E819F8147D168EEE6
:100E800073E080E090E05CD467E072E08BE394E094
:100E90000E9427106AEF71E014C040E052EC61E05C
:100EA00070E08E819F8132D168EE73E080E090E047
:100EB00047D463EF71E08BE394E00E94271066EE65
:100EC00071E08E819F8143D168EE73E080E090E015
:100ED00037D440E855E260E070E08E819F8116D102
:100EE00068EE73E080E090E02BD455E0E52E05E756
:100EF00012E024E630E044EF51E068E772E0C6011A
:100F0000E9DC68EE73E080E090E01AD448EE53E04C
:100F100068EE73E0C601D3DC8FEFA81AB80A98E038
:100F2000A916B10409F01DCF61EA71E08BE394E0EA
:100F30000E94271061E08EE216D560EB74E080E03D
:100F400090E0FED360E08EE20ED560E177E280E0D3
:100F500090E0F6D338C0F4011082FF20B9F042E3EC
:100F600050E062E370E0C601AADC60E0C601CBDDC0
:100F7000C60180DD60E0C60185DB82E090E0EC81A7
:100F8000FD819183808381E090E07FC040E052EC5E
:100F900061E070E08E819F81B9D068EE73E080E0FF
:100FA00090E0CED36BE772E08E819F81F5D02AE08E
:100FB00030E0B301A2018E819F817FD167E672E0AC
:100FC0008E819F81E9D080E090E05FC0E758FF4FBD
:100FD0000C946A1040E659E060E070E08ACE40EC84
:100FE00052E160E070E085CE40E855E260E070E0FC
:100FF00080CE40E05BE460E070E07BCE40E056E90C
:1010000060E070E076CE40E051EE60E070E071CEDE
:1010100040E052EC61E070E06CCE64EB72E08BE398
:1010200094E00E9427106BE772E08E819F81B4D01C
:101030002AE030E0B301A2018E819F813ED167E6B4
:1010400072E08E819F81A8D064EF71E080E090E033
:1010500077D3B301A2018E819F8158D064E670E0FE
:1010600080E090E06DD324E630E044EF51E068E7A3
:1010700072E0C6012FDC813029F46BEA72E08BE369
:1010800094E0E5D7FF24F39458CE27960FB6F89452
:10109000DEBF0FBECDBFDF91CF911F910F91FF90AB
:1010A000EF90DF90CF90BF90AF909F908F907F9008
:1010B0006F905F904F903F902F900895CF92DF9266
:1010C000EF92FF920F931F93CF93DF936C017A01FE
:1010D000EB01E60EF71E00E010E0CE15DF0561F033
:1010E0006991D601ED91FC910280F381E02DC6015A
:1010F0001995080F191FF1CFC801DF91CF911F91EA
:101100000F91FF90EF90DF90CF90089526E088ED4B
:1011100094E06CC5DB010D900020E9F7AD01415072
:101120005109461B570BDC01ED91FC910480F581C0
:10113000E02D19942DE832E0FC013183208326E074
:1011400040E855E260E070E088ED94E04FC5EF9232
:10115000FF920F931F93CF93DF938C01FB01C0E0AD
:10116000D0E064917F018FEFE81AF80A662361F0FE
:10117000D801ED91FC910280F381E02DC801199511
:10118000C80FD91FF701EDCFCE01DF91CF911F918D
:101190000F91FF90EF900895BDCFDC01ED91FC9190
:1011A0000280F381E02D19940F931F93CF93DF9367
:1011B000EC016DE0F2DF8C016AE0CE01EEDF800F22
:1011C000911FDF91CF911F910F9108950F931F935E
:1011D000CF93DF93EC01BBDF8C01CE01E5DF800F05
:1011E000911FDF91CF911F910F9108950F931F933E
:1011F000CF93DF93EC018EDF8C01CE01D5DF800F22
:10120000911FDF91CF911F910F9108958F929F921F
:10121000AF92BF92CF92DF92EF92FF920F931F9304
:10122000CF93DF93CDB7DEB7A1970FB6F894DEBFAB
:101230000FBECDBF7C01C42EE52FCB01D22E19A24B
:1012400021E02D1510F02AE0D22E8E010F5D1F4FE8
:101250008D2C912CA12CB12C6C2D7E2FA5019401ED
:1012600017D78C2DD29E80191124015011098A3074
:1012700014F4805D01C0895CF8018083211531057B
:101280004105510521F0C22EE32FCA01E5CFB80177
:10129000C70140DFA1960FB6F894DEBF0FBECDBFE9
:1012A000DF91CF911F910F91FF90EF90DF90CF9042
:1012B000BF90AF909F908F900895CF92DF92EF9262
:1012C000FF920F931F93CF93DF93EC016A017B0191
:1012D0002115310579F4E881F9810280F381E02D4F
:1012E000642FDF91CF911F910F91FF90EF90DF90CE
:1012F000CF9019942A303105D9F477FF18C06DE2E8
:101300004CDF8C0144275527BA014C195D096E0941
:101310007F092AE0CE017ADF800F911FDF91CF9104
:101320001F910F91FF90EF90DF90CF9008952AE0EA
:10133000B701A601CE01DF91CF911F910F91FF90D0
:10134000EF90DF90CF9062CF9A01AB01662757FDF7
:101350006095762FB2CF63E070E084E093E011C037
:1013600088ED94E0DFC388ED94E04BC388ED94E012
:101370002FC388ED94E0B5C363E070E086E093E0AE
:1013800000C0FC01718360830895CF93DF93EC016B
:101390000296AAD983EA92E0998388838FEA92E041
:1013A0009B838A83DF91CF910895DC01ED91FC91BD
:1013B000369720813181280F391FC90184529F4FF0
:1013C00015CFDC01ED91FC91369720813181280FFA
:1013D000391FC90184529F4F09CF63E070E08AEE44
:1013E00093E0CFDF88E093E0D0CF83EA92E0909360
:1013F0000903809308038FEA92E090930B03809394
:101400000A030895DC01ED91FC913697208131812A
:10141000280F391FC90184529F4FA5CF0895DC01C1
:10142000ED91FC91369720813181280F391FC90138
:1014300084529F4F9BCF9F92AF92BF92CF92DF92E9
:10144000EF92FF920F931F93CF93DF938C017B0159
:101450006A0162E073E08BE394E0C9D588E093E031
:10146000DEDF1816190644F064E670E080E090E0D4
:1014700067D160E073E0EFCFC0E0D0E0560181E0DB
:10148000A81AB10888E093E0CADF1816190604F517
:10149000CA15DB05ECF4D801ED91FC9136978081FB
:1014A0009181800F911F84529F4F5DDF982E1816F7
:1014B0004CF4692D8BE394E0C0D5F701EC0FFD1FD0
:1014C0009082219661E070E080E090E039D1DACF3F
:1014D000F701EC0DFD1D3197108268EF72E08BE390
:1014E00094E0B5D5CE01DF91CF911F910F91FF9080
:1014F000EF90DF90CF90BF90AF909F900895CF93E3
:10150000DF93EC01E881F9813697808191818C0F1E
:101510009D1F84529F4F2ADF1816190694F4E88104
:10152000F9813697808191818C0F9D1F84529F4F46
:101530001ADF181634F4682F8BE394E0DF91CF9113
:101540007CC5DF91CF91089563E070E08CEE93E06D
:1015500018CF1F920F920FB60F9211240BB60F9255
:101560002F933F934F935F936F937F938F939F93AB
:10157000AF93BF93EF93FF93E0913004F091310468
:10158000309709F451C0868DA685B785958581FF72
:1015900004C08C91892329F447C08C91892309F0D8
:1015A00043C0A389B4899C918589809589238C93B4
:1015B000868997890197F1F7208D318DA685B785AA
:1015C000758558E040E0C9010197F1F7842F90E05C
:1015D00095958795482F6C91672309F04068515085
:1015E00091F7868D81FD40958091EF0390E0019603
:1015F0008F7399272091EE03281749F0A091EF03EC
:10160000B0E0A051BC4F4C938093EF0303C0868D94
:101610008160868F828D938D0197F1F7A389B489BC
:101620008C919589892B8C93FF91EF91BF91AF910C
:101630009F918F917F916F915F914F913F912F91EA
:101640000F900BBE0F900FBE0F901F9018951F921A
:101650000F920FB60F9211242F933F938F939F9366
:10166000AF93BF938091330490913404A0913504DB
:10167000B09136043091320423E0230F2D3720F44B
:101680000196A11DB11D05C026E8230F0296A11DDC
:10169000B11D209332048093330490933404A093BB
:1016A0003504B09336048091370490913804A091AA
:1016B0003904B0913A040196A11DB11D80933704FD
:1016C00090933804A0933904B0933A04BF91AF913A
:1016D0009F918F913F912F910F900FBE0F901F9070
:1016E00018952FB7F8946091330470913404809169
:1016F0003504909136042FBF08953FB7F894809138
:10170000370490913804A0913904B0913A0426B579
:10171000A89B05C02F3F19F00196A11DB11D3FBF29
:101720006627782F892F9A2F620F711D811D911DB9
:1017300042E0660F771F881F991F4A95D1F70895D9
:10174000CF92DF92EF92FF92CF93DF936B017C01F8
:10175000D4DFEB01C114D104E104F10479F097D492
:10176000CCDF6C1B7D0B683E7340A0F381E0C81A90
:10177000D108E108F108C851DC4FECCFDF91CF91DF
:10178000FF90EF90DF90CF900895789484B58260B9
:1017900084BD84B5816084BD85B5826085BD85B515
:1017A000816085BDEEE6F0E0808181608083E1E8C4
:1017B000F0E01082808182608083808181608083FC
:1017C000E0E8F0E0808181608083E1EBF0E08081FF
:1017D00084608083E0EBF0E0808181608083E1E9D8
:1017E000F0E0808182608083808181608083E0E995
:1017F000F0E0808181608083E1EAF0E080818260B6
:101800008083808181608083E0EAF0E08081816074
:101810008083E1E2F1E08081826080838081816069
:101820008083E0E2F1E0808181608083EAE7F0E09C
:1018300080818460808380818260808380818160F8
:1018400080838081806880831092C100089590E039
:10185000FC013197E231F10508F04BC0E058FF4F31
:1018600039C4809180008F7703C0809180008F7D84
:1018700080938000089580918000877FF9CF84B5A0
:101880008F7702C084B58F7D84BD08958091B000AC
:101890008F7703C08091B0008F7D8093B000089552
:1018A000809190008F7707C0809190008F7D03C05A
:1018B00080919000877F8093900008958091A00090
:1018C0008F7707C08091A0008F7D03C08091A0001A
:1018D000877F8093A0000895809120018F7707C0B3
:1018E000809120018F7D03C080912001877F8093AC
:1018F00020010895CF93DF9390E0FC01E559FC4F60
:101900002491FC01EF54FC4F8491882349F190E02D
:10191000880F991FFC01EF5EFB4FA591B491895090
:101920009C4FFC01C591D4919FB7611108C0F894F8
:101930008C91209582238C93888182230AC0623007
:1019400051F4F8948C91322F309583238C938881B5
:10195000822B888304C0F8948C91822B8C939FBF38
:10196000DF91CF9108950F931F93CF93DF931F9231
:10197000CDB7DEB7282F30E0F901EB5DFC4F849145
:10198000F901E559FC4F1491F901EF54FC4F049112
:101990000023C1F0882319F0698359DF6981E02FA2
:1019A000F0E0EE0FFF1FE950FC4FA591B4919FB7F7
:1019B000F8948C91611103C01095812301C0812B93
:1019C0008C939FBF0F90DF91CF911F910F9108953E
:1019D000FC01818D228D90E0805C9F4F821B9109DC
:1019E0008F7399270895FC01918D828D981731F09E
:1019F000828DE80FF11D858D90E008958FEF9FEFA8
:101A00000895FC01918D828D981761F0828DDF0120
:101A1000A80FB11D5D968C91928D9F5F9F73928FE1
:101A200090E008958FEF9FEF089585EB9EE0892B5E
:101A300039F080E090E0892B19F097D1811124C012
:101A400080E090E0892B41F080E090E0892B21F04C
:101A50000E94000081111BC080E69FE0892B39F0B5
:101A600080E090E0892B19F02BD2811113C080E027
:101A700090E0892BA1F080E090E0892B81F00E941A
:101A8000000081110AC008950E940000D9CF0E9471
:101A90000000E2CF0E940000EACF0C9400000895FD
:101AA000FC01848DDF01A80FB11DA35ABF4F2C91FB
:101AB000848D90E001968F739927848FA689B789CA
:101AC0002C93A089B1898C9180648C93938D848DA3
:101AD000981306C00288F389E02D80818F7D808372
:101AE0000895CF93DF93EC01888D8823C1F0EA89B4
:101AF000FB89808185FD05C0A889B9898C9186FD07
:101B00000EC00FB607FCF5CF808185FFF2CFA88904
:101B1000B9898C9185FFEDCFCE01C2DFE8CFDF918F
:101B2000CF910895CF92DF92FF920F931F93CF939F
:101B3000DF931F92CDB7DEB76C0181E0D6015896D6
:101B40008C9358975B969C915B975C968C915C9775
:101B5000981307C05096ED91FC915197808185FDB7
:101B60002DC0F601038D10E00F5F1F4F0F7311277B
:101B7000F02EF601848DF81210C00FB607FCF9CFD5
:101B8000D6015096ED91FC915197808185FFF1CF60
:101B9000C601698385DF6981ECCF838DE80FF11D74
:101BA000E35AFF4F6083D6015B960C935B97529686
:101BB000ED91FC915397808180620CC0D6015696BE
:101BC000ED91FC91579760835096ED91FC91519760
:101BD00080818064808381E090E00F90DF91CF91DD
:101BE0001F910F91FF90DF90CF900895BF92CF92F9
:101BF000DF92EF92FF92CF93DF93EC016A017B01BA
:101C0000B22EE889F98982E08083411581EE580778
:101C10006105710599F060E079E08DE390E0A7013E
:101C2000960136D2215031094109510956954795FF
:101C300037952795211580E1380790F0E889F989D3
:101C4000108260E874E88EE190E0A701960120D24E
:101C500021503109410951095695479537952795E6
:101C6000EC85FD853083EE85FF852083188EEC8919
:101C7000FD89B082EA89FB89808180618083EA895D
:101C8000FB89808188608083EA89FB898081806804
:101C90008083EA89FB8980818F7D8083DF91CF916A
:101CA000FF90EF90DF90CF90BF9008951F920F921A
:101CB0000FB60F9211240BB60F922F938F939F9311
:101CC000EF93FF93E0914B04F0914C048081E091FD
:101CD0005104F091520482FD12C09081809154040D
:101CE0008F5F8F7320915504821751F0E091540457
:101CF000F0E0E55CFB4F958F8093540401C0808138
:101D0000FF91EF919F918F912F910F900BBE0F90AC
:101D10000FBE0F901F9018951F920F920FB60F9243
:101D200011240BB60F922F933F934F935F936F93B2
:101D30007F938F939F93AF93BF93EF93FF938BE327
:101D400094E0AEDEFF91EF91BF91AF919F918F91A3
:101D50007F916F915F914F913F912F910F900BBEAB
:101D60000F900FBE0F901F9018958BE394E030DE1C
:101D700021E0892B09F420E0822F089510923E047F
:101D800010923D0488EE93E0A0E0B0E080933F0421
:101D900090934004A0934104B093420485EB92E0F9
:101DA00090933C0480933B0485EC90E0909348042E
:101DB0008093470484EC90E090934A048093490414
:101DC00080EC90E090934C0480934B0481EC90E085
:101DD00090934E0480934D0482EC90E090935004D5
:101DE00080934F0486EC90E09093520480935104CA
:101DF00010925404109255041092560410925704F5
:101E000008951F920F920FB60F9211240BB60F92E6
:101E10002F938F939F93EF93FF93E091E804F091BA
:101E2000E9048081E091EE04F091EF0482FD12C09C
:101E300090818091F1048F5F8F732091F20482175B
:101E400051F0E091F104F0E0E852FB4F958F809360
:101E5000F10401C08081FF91EF919F918F912F91AB
:101E60000F900BBE0F900FBE0F901F9018951F92F2
:101E70000F920FB60F9211240BB60F922F933F9330
:101E80004F935F936F937F938F939F93AF93BF9382
:101E9000EF93FF9388ED94E003DEFF91EF91BF9104
:101EA000AF919F918F917F916F915F914F913F91F2
:101EB0002F910F900BBE0F900FBE0F901F90189593
:101EC00088ED94E085DD21E0892B09F420E0822F64
:101ED00008951092DB041092DA0488EE93E0A0E0FB
:101EE000B0E08093DC049093DD04A093DE04B09313
:101EF000DF0485EB92E09093D9048093D80485EDBC
:101F000090E09093E5048093E40484ED90E0909356
:101F1000E7048093E60480ED90E09093E9048093D9
:101F2000E80481ED90E09093EB048093EA0482ED65
:101F300090E09093ED048093EC0486ED90E0909314
:101F4000EF048093EE041092F1041092F2041092C8
:101F5000F3041092F4040895089517DCFDDF0E9445
:101F60005402C5E1DDE00E94ED022097E1F35DDD62
:101F7000FACFCF92DF92EF92FF920F931F93CF93FE
:101F8000DF936C017A01EB01E60EF71E00E010E032
:101F9000CE15DF0561F06991D601ED91FC910190BC
:101FA000F081E02DC6011995080F191FF1CFC80166
:101FB000DF91CF911F910F91FF90EF90DF90CF9025
:101FC00008956115710581F0DB010D900020E9F79E
:101FD000AD0141505109461B570BDC01ED91FC91BD
:101FE0000280F381E02D199480E090E00895EF9253
:101FF000FF920F931F93CF93DF938C01FB01C0E0FF
:10200000D0E064917F018FEFE81AF80A662361F04F
:10201000D801ED91FC910190F081E02DC801199556
:10202000C80FD91FF701EDCFCE01DF91CF911F91DE
:102030000F91FF90EF900895C4CFDC01ED91FC91DA
:102040000190F081E02D199461EC72E0BACF0F930A
:102050001F93CF93DF93EC01CADF8C01CE01F4DF35
:10206000800F911FDF91CF911F910F9108950F93D2
:102070001F93CF93DF93EC01A4DF8C01CE01E4DF4B
:10208000800F911FDF91CF911F910F9108950895B7
:10209000A1E21A2EAA1BBB1BFD010DC0AA1FBB1F6C
:1020A000EE1FFF1FA217B307E407F50720F0A21BDE
:1020B000B30BE40BF50B661F771F881F991F1A944B
:1020C00069F760957095809590959B01AC01BD0175
:1020D000CF010895EE0FFF1F0590F491E02D1994A4
:1020E0000790F691E02D1994FB01DC018D91019090
:1020F00080190110D9F3990B0895FB0151915523D3
:10210000A9F0BF01DC014D9145174111E1F759F4E8
:10211000CD010190002049F04D9140154111C9F3C6
:10212000FB014111EFCF81E090E00197089514E0A9
:10213000C2E4D4E000E005C022970109FE010BBF14
:10214000CFDFC434D10780E00807B1F7F894FFCFA0
:1021500000007505800047534D20536869656C6425
:102160002074657374696E672E000A7374617475E8
:10217000733D5245414459000A7374617475733D4F
:1021800049444C45002F454E44005F00544553548C
:10219000005349474E414C205155414C4954590038
:1021A00041542B435351004154543A200052494367
:1021B0003A2000415445000D002B43504D533A0046
:1021C00053485554204F4B0041540041542B495023
:1021D000523D0000000000BC05000000008608B071
:1021E000095E08B309B609B909A302AF02020000EB
:1021F0000000001B0A020A0F0A0000FEFF0000BCDC
:102200000500000000920DB90FE80C010DF30C71F0
:102210000D0D0A006E616E00696E66006F766600D5
:00000001FF
